:020000000D28C9
:10000800DE00030E8312A0000A08A1005F08A20008
:100018007F280E288312AA01830112288B01CF3072
:10002800831681000C3085008312850183169F0199
:100038000730831299008316990183129F013D307E
:1000480090000B308F0047308E008C0101308316F2
:100058008C00C0308B004E203C3083122A02031CD7
:10006800362837283028AA01051D3B283C28302887
:1000780085140230A9004530A800A930A700A70BB5
:100088004328A80B4328A90B43284A288312851024
:1000980030280D2806308312A5001330A400AD3097
:1000A800A300A30B5528A40B5528A50B55285C289D
:1000B8008312A60105144130A400EE30A300A30B5F
:1000C8006328A40B63280000831205104130A400A4
:1000D800EE30A300A30B6E28A40B6E28000001309D
:1000E800DF005F088312A6071E302602031C7D2846
:1000F8007E285E2808000C1C82288328A228640019
:1001080083120C1083160C140B3083128F004730A7
:100118008E000130DF005F08AA07051D9428952886
:10012800A1280310051C031403189B289E2883127A
:100138000514A02883120510A228051422082108F6
:0C0148008A00200E8300DE0E5E0E09000F
:02400E00EC3193
:00000001FF
